:1004B5005468752000434E484154200032300054A2
:1004C500696D653A2000202000205245414C20549A
:1004D500494D4520434C4F434B20002020202047C9
:1004E500524F5550203130202000202020205345E8
:1004F500542047494F002020202048483A4D4D3A86
:1005050053530020202020003A002020202053456E
:1005150054204E474159002020444154453A444413
:100525002F4D4D2F5959002020202020002F00202D
:1005350020202048454E2047494F002020202020DC
:1005450048483A4D4D0020204E48414320434855E8
:100555004F4E4700202020204348554F4E4720311D
:1005650000202020204348554F4E472032002020B0
:0B05750020204348554F4E4720330024
:100A500001240A01260A01280A012A0A011E61014D
:060A60001F61021A0000F4
:0F0AC700EFC4540F75F00AA4FEEF540F2EFF2258
:100A9000EF75F00A84C454F0FEEF75F00A84EE2579
:030AA000F0FF2242
:0D0AD60074D02FC454F0FF74D02D4FFF22B8
:100AB600C29FD29E758920758DFDD28ED299D29C09
:010AC600220D
:0B0AA300120629120AB6120AFF8F1F6C
:080AAE003099FDC2998F9922D5
:030AFC001209F8E4
:080AFF003098FDC298AF992266
:08092800D290D2917F017E0004
:10093000E4FDFCC3ED9FEE6480F8EC6480985015F4
:10094000E4FBFA0BBB00010AEB647D4A70F50DBDB8
:0509500000010C80DE37
:01095500227F
:10030F0012032D7F0112032D7F0812032D7F01127F
:0E031F00032D7F0812032D7F0112032D7F088E
:10032D0020A70C75240A75260A75280A752A0AEF66
:10033D0064014E7029F52F753041758901758CF862
:10034D00758A80D28C308DFDB2B6C28CC28DE530EF
:10035D0015307002152FE530452F70DEC2B6EF64F3
:10036D00024E7029F52F753049758901758CF97517
:10037D008A55D28C308DFDB2B6C28CC28DE530154A
:10038D00307002152FE530452F70DEC2B6EF6403D5
:10039D004E7029F52F753053758901758CFAE4F57A
:1003AD008AD28C308DFDB2B6C28CC28DE53015303F
:1003BD007002152FE530452F70DEC2B6EF64044E86
:1003CD007029F52F753058758901758CFA758A6607
:1003DD00D28C308DFDB2B6C28CC28DE53015307029
:1003ED0002152FE530452F70DEC2B6EF64054E7055
:1003FD0029F52F753062758901758CFBE4F58AD26C
:10040D008C308DFDB2B6C28CC28DE53015307002C8
:10041D00152FE530452F70DEC2B6EF64064E7029FC
:10042D00F52F75306E758901758CFB758A80D28CB0
:10043D00308DFDB2B6C28CC28DE53015307002150F
:10044D002FE530452F70DEC2B6EF64074E7029F5EB
:10045D002F75307C758901758CFCE4F58AD28C3052
:10046D008DFDB2B6C28CC28DE53015307002152FE0
:10047D00E530452F70DEC2B6EF64084E7029F52FBA
:10048D00753086758901758CFC758A40D28C308DDE
:10049D00FDB2B6C28CC28DE53015307002152FE558
:0804AD0030452F70DEC2B622BB
:10062900E51E6461703D7F01FE12032D7F071203F1
:100639002D0F12032D7F0612032D7F0212032D1F8A
:1006490012032D7F0512032D0F12032D12032D7F87
:100659000112032D7F0712032D7F0512032D7F023F
:1006690012032DE51E646270107F08FE12030F7FCE
:100679000112032D7F0812030FE51E646370477F83
:1006890001FE1203287F021203287F031203287F29
:10069900041203287F0512032D0F1203281F1203CA
:1006A9002D0F12032D1F12032D0F12032D7F06127A
:1006B90003287F051203287F041203287F031203EE
:0706C900287F0212031E222C
:0B09A700C2A17F327E001209B2D2A272
:1009B200E4FDFCC3ED9FEE6480F8EC648098500780
:0709C2000DBD00010C80ECEB
:0109C900220B
:100A20007580FFC2A0D2A130870DC2A27F327E00A6
:080A30001209B2D2A280F022EB
:090A38007FD07E071209307F0116
:0F0A4100AB07120A208B80C2A01209A7C2A22203
:0C09EC00EF3395E08F82F58312081DFFA9
:0F09F800AB07120A208B80D2A01209A7C2A2223D
:0B08AA007F01120A417BFF7A05794BA9
:0608B5008B338A34893503
:1008BB00E4F536AB33AA34A935120A67AD36ED33FE
:1008CB0095E0FCC3ED9FEE6480F8EC648098500FCC
:0F08DB00AB33AA34A935AF361209EC053680D4F9
:0108EA0022EB
:0608EB008B338A348935CD
:1008F100E4F536AB33AA34A935120A67AD36ED33C8
:1009010095E0FCC3ED9FEE6480F8EC64809850168E
:10091100AB33AA34A935AF361209EC7F4B7E0012F6
:060921000930053680CD0F
:0109270022AD
:100A7C007F38120A417F01120A417F0C120A417F12
:040A8C0080020A4199
:0D0AE300120928C291120930C290D291224E
:0C0AF000C291D29012092CD29102093060
:020956008F35DB
:10095800E4F9E5355480FFBF8004D2918002C2914A
:10096800D29012092CC290E53525E0F53509B90871
:08097800E1D29012092CC2909B
:010980002254
:10098100E4F534F9D290E53425E0F53412092CA2CE
:1009910091E4334234C29012093009B908E61209D0
:0509A10028C290AF34F4
:0109A600222E
:100A07008F338D34120AE37FD0120956AF331209A0
:090A170056AF34120956020AF030
:0209CA008F3369
:1009CC00120AE37FD0120956AF33120956120AE30A
:0F09DC007FD1120956120981A907120AF0AF0143
:0109EB0022E9
:10086300E4FF1209CA120AC78F1C7F011209CA12B8
:100873000AC78F237F021209CA120AC78F227F0376
:100883001209CA120AC78F2C7F041209CA120AC797
:100893008F1D7F051209CA120AC78F0F7F0612091F
:0708A300CA120AC78F2022D0
:10058000E51C75F00A1207FB2430F516E51C75F022
:100590000A1207FBAFF0EF2430F518E52375F00AD7
:1005A0001207FB2430F512E52375F00A1207FBAFA2
:1005B000F0EF2430F514E52275F00A1207FB243021
:1005C000F510E52275F00A1207FBAFF0EF2430F5C5
:1005D00011E52C242FF521E51D75F00A1207FB24E7
:1005E00030F509E51D75F00A1207FBAFF0EF243076
:1005F000F50AE50F75F00A1207FB2430F50DE50F3B
:1006000075F00A1207FBAFF0EF2430F50EE5207508
:10061000F00A1207FB2430F513E52075F00A1207E3
:09062000FBAFF0EF2430F51522C8
:1006D0001208631205807F80120A41E52C64077BB3
:1006E000FF60157A0479B51208B5E52104FF1209F7
:1006F000F87F201209F880077A0479BA1208B5AF9A
:10070000091209F8AF0A1209F87F2F1209F8AF0D84
:100710001209F8AF0E1209F87F2F1209F87BFF7A41
:100720000479C11208B5AF131209F8AF151209F810
:100730007FC0120A417BFF7A0479C41208B5AF105A
:100740001209F8AF111209F87F3A1209F8AF121224
:1007500009F8AF141209F87F3A1209F8AF16120916
:0F076000F8AF181209F87BFF7A0479CB0208B5BD
:10000300C2B6120A7C7F80120A417BFF7A0479CE42
:100013001208EB7FC0120A417BFF7A0479E01208D1
:10002300EB120A3820A606751A00751B0220A506D6
:10003300751A00751B01E51B451A701A1206D0E5E7
:1000430010B52412E511B5260DE512B52808E514FF
:10005300B52A03120629E51B6401451A600302024F
:1000630000120A7C7BFF7A0479EF1208B57FE87EE1
:1000730003120A3C7BFF7A0479FB1208B57FC01296
:100083000A417BFF7A0579081208B5120AB6120AEB
:10009300FF8F25120AAEAF25120AFC8F27120AAE74
:1000A300AF271209F8AD27AF25120AD68F227BFF9F
:1000B3007A05790D1208B5120AFF8F29120AAEAF1D
:1000C30029120AFC8F2B120AAEAF2B1209F8AD2BA3
:1000D300AF29120AD68F237BFF7A05790D1208B553
:1000E300120AFF8F2D120AAEAF2D1209F8120AFF62
:1000F3008F2E120AAEAF2E1209F8AD2EAF2D120AB3
:10010300D68F1C7F0A7E00120A3C7BFF7A05790F8B
:100113001208B5120A387BFF7A05791C1208B57FDD
:10012300C0120A417BFF7A05792C1208B5120AB670
:10013300120AFF8F08120AAEAF081209F8E5082465
:10014300D0F52C7BFF7A05790D1208B5120AFF8FC3
:1001530031120AAEAF311209F8120AFF8F32120AB6
:10016300AEAF321209F8AD32AF31120AD68F1D7B12
:10017300FF7A0579321208B5120AFF8F0B120AAE05
:10018300AF0B1209F8120AFF8F0C120AAEAF0C1252
:1001930009F8AD0CAF0B120AD68F0F7BFF7A0579E6
:1001A300321208B5120AFF8F17120AAEAF171209DF
:1001B300F8120AFF8F19120AAEAF191209F8AD1916
:1001C300AF17120AD68F20AD1CE4FF120A07AD2326
:1001D3007F01120A07AD227F02120A07AD2C7F03AB
:1001E300120A07AD1D7F04120A07AD0F7F05120A1D
:1001F30007AD207F06120A07E4F51AF51BE51B6419
:1002030002451A6003020027120A7C7BFF7A0579F4
:10021300341208B57FE87E03120A3C7BFF7A057926
:10022300401208B57FC0120A417BFF7A05792C1270
:1002330008B5120AB6120AFF8F24120AAEAF2412AF
:1002430009F8120AFF8F26120AAEAF261209F87BAD
:10025300FF7A05790D1208B5120AFF8F28120AAE2C
:10026300AF281209F8120AFF8F2A120AAEAF2A1218
:1002730009F81208AA7FC0120A41120AFF8F1E1240
:100283000AAEE51E6461600FE51E64626009E51E47
:1002930064636003751E61E51E646170167BFF7AFB
:1002A3000579591208B5120AA3E51FB46102804605
:1002B300851F1E1208AA7FC0120A41E51E646270E0
:1002C300167BFF7A0579661208B5120AA3E51FB4F7
:1002D30062028022851F1E1208AA7FC0120A41E50E
:1002E3001E6463701C7BFF7A0579731208B5120ACA
:1002F300A3E51FB46308E4F51AF51B020027851F65
:0C0303001E1208AA7FC0120A41020285E7
:0300000002076F85
:0C076F00787FE4F6D8FD7581360207B6ED
:1007FB00C2D530F707B2D563F0FF05F030E70CB286
:10080B00D5F4048463F0FF05F080018430D502F445
:02081B000422B5
:10081D00BB010CE58229F582E5833AF583E0225090
:10082D0006E92582F8E622BBFE06E92582F8E222DA
:0D083D00E58229F582E5833AF583E49322F4
:100A6700E4FFFE12084A600C0FEF70010E09E970EF
:050A7700F20A80EF22ED
:10077B00020003E493A3F8E493A34003F68001F291
:10078B0008DFF48029E493A3F85407240CC8C3337F
:10079B00C4540F4420C8834004F456800146F6DF4E
:1007AB00E4800B0102040810204080900A50E47E84
:1007BB00019360BCA3FF543F30E509541FFEE49343
:1007CB00A360010ECF54C025E060A840B8E493A30A
:1007DB00FAE493A3F8E493A3C8C582C8CAC583CA35
:1007EB00F0A3C8C582C8CAC583CADFE9DEE780BEED
:010A6600008F
:10084A00BB010689828A83E0225002E722BBFE02AC
:09085A00E32289828A83E49322DF
:00000001FF
